{
  "_format": "hh-sol-artifact-1",
  "contractName": "Game",
  "sourceName": "contracts/Game.sol",
  "abi": [
    {
      "anonymous": false,
      "inputs": [
        {
          "indexed": false,
          "internalType": "address",
          "name": "player",
          "type": "address"
        },
        {
          "indexed": false,
          "internalType": "uint8",
          "name": "cardValue",
          "type": "uint8"
        },
        {
          "indexed": false,
          "internalType": "string",
          "name": "suit",
          "type": "string"
        },
        {
          "indexed": false,
          "internalType": "string",
          "name": "rank",
          "type": "string"
        }
      ],
      "name": "CardDrawn",
      "type": "event"
    },
    {
      "anonymous": false,
      "inputs": [
        {
          "indexed": false,
          "internalType": "address",
          "name": "player",
          "type": "address"
        },
        {
          "indexed": false,
          "internalType": "string",
          "name": "result",
          "type": "string"
        },
        {
          "indexed": false,
          "internalType": "uint256",
          "name": "playerScore",
          "type": "uint256"
        },
        {
          "indexed": false,
          "internalType": "uint256",
          "name": "dealerScore",
          "type": "uint256"
        }
      ],
      "name": "GameResult",
      "type": "event"
    },
    {
      "inputs": [
        {
          "internalType": "uint256",
          "name": "",
          "type": "uint256"
        }
      ],
      "name": "deck",
      "outputs": [
        {
          "internalType": "uint8",
          "name": "",
          "type": "uint8"
        }
      ],
      "stateMutability": "view",
      "type": "function"
    },
    {
      "inputs": [],
      "name": "drawCard",
      "outputs": [],
      "stateMutability": "nonpayable",
      "type": "function"
    },
    {
      "inputs": [],
      "name": "getDealerHand",
      "outputs": [
        {
          "internalType": "uint8[]",
          "name": "",
          "type": "uint8[]"
        }
      ],
      "stateMutability": "view",
      "type": "function"
    },
    {
      "inputs": [],
      "name": "getMyHand",
      "outputs": [
        {
          "internalType": "uint8[]",
          "name": "",
          "type": "uint8[]"
        }
      ],
      "stateMutability": "view",
      "type": "function"
    },
    {
      "inputs": [],
      "name": "stand",
      "outputs": [],
      "stateMutability": "nonpayable",
      "type": "function"
    },
    {
      "inputs": [],
      "name": "startGame",
      "outputs": [],
      "stateMutability": "nonpayable",
      "type": "function"
    }
  ],
  "bytecode": "0x6080604052348015600f57600080fd5b506119168061001f6000396000f3fe608060405234801561001057600080fd5b50600436106100625760003560e01c80630b02f5a2146100675780632f5be23e1461008557806365b1dafa1461008f578063c2897b10146100bf578063d65ab5f2146100c9578063fffae4fa146100d3575b600080fd5b61006f6100f1565b60405161007c919061130f565b60405180910390f35b61008d6101ac565b005b6100a960048036038101906100a4919061136c565b61034b565b6040516100b691906113a8565b60405180910390f35b6100c761037f565b005b6100d1610872565b005b6100db61091a565b6040516100e8919061130f565b60405180910390f35b6060600160003373ffffffffffffffffffffffffffffffffffffffff1673ffffffffffffffffffffffffffffffffffffffff1681526020019081526020016000208054806020026020016040519081016040528092919081815260200182805480156101a257602002820191906000526020600020906000905b82829054906101000a900460ff1660ff168152602001906001019060208260000104928301926001038202915080841161016b5790505b5050505050905090565b60008080549050116101f3576040517f08c379a00000000000000000000000000000000000000000000000000000000081526004016101ea90611420565b60405180910390fd5b6000806001600080549050610208919061146f565b81548110610219576102186114a3565b5b90600052602060002090602091828204019190069054906101000a900460ff169050600080548061024d5761024c6114d2565b5b60019003818190600052602060002090602091828204019190066101000a81549060ff02191690559055600160003373ffffffffffffffffffffffffffffffffffffffff1673ffffffffffffffffffffffffffffffffffffffff1681526020019081526020016000208190806001815401808255809150506001900390600052602060002090602091828204019190069091909190916101000a81548160ff021916908360ff160217905550600080610305836109d5565b915091507f572987956e438bcadc0a136a4c05d0447ba0f61695b71b2fc69401d462df88dc3384848460405161033e94939291906115c1565b60405180910390a1505050565b6000818154811061035b57600080fd5b9060005260206000209060209182820401919006915054906101000a900460ff1681565b600061043d600160003373ffffffffffffffffffffffffffffffffffffffff1673ffffffffffffffffffffffffffffffffffffffff16815260200190815260200160002080548060200260200160405190810160405280929190818152602001828054801561043357602002820191906000526020600020906000905b82829054906101000a900460ff1660ff16815260200190600101906020826000010492830192600103820291508084116103fc5790505b5050505050610e37565b90505b60116104fe600260003373ffffffffffffffffffffffffffffffffffffffff1673ffffffffffffffffffffffffffffffffffffffff1681526020019081526020016000208054806020026020016040519081016040528092919081815260200182805480156104f457602002820191906000526020600020906000905b82829054906101000a900460ff1660ff16815260200190600101906020826000010492830192600103820291508084116104bd5790505b5050505050610e37565b101561061d5760008080549050031561061d576000806001600080549050610526919061146f565b81548110610537576105366114a3565b5b90600052602060002090602091828204019190069054906101000a900460ff169050600080548061056b5761056a6114d2565b5b60019003818190600052602060002090602091828204019190066101000a81549060ff02191690559055600260003373ffffffffffffffffffffffffffffffffffffffff1673ffffffffffffffffffffffffffffffffffffffff1681526020019081526020016000208190806001815401808255809150506001900390600052602060002090602091828204019190069091909190916101000a81548160ff021916908360ff16021790555050610440565b60006106db600260003373ffffffffffffffffffffffffffffffffffffffff1673ffffffffffffffffffffffffffffffffffffffff1681526020019081526020016000208054806020026020016040519081016040528092919081815260200182805480156106d157602002820191906000526020600020906000905b82829054906101000a900460ff1660ff168152602001906001019060208260000104928301926001038202915080841161069a5790505b5050505050610e37565b905060606015831115610725576040518060400160405280600b81526020017f4c6f7365202842757374290000000000000000000000000000000000000000008152509050610830565b601582111561076b576040518060400160405280601181526020017f57696e20284465616c6572204275737429000000000000000000000000000000815250905061082f565b818311156107b0576040518060400160405280600381526020017f57696e0000000000000000000000000000000000000000000000000000000000815250905061082e565b8183036107f4576040518060400160405280600481526020017f4472617700000000000000000000000000000000000000000000000000000000815250905061082d565b6040518060400160405280600481526020017f4c6f73650000000000000000000000000000000000000000000000000000000081525090505b5b5b5b7ff6453c8b859a8ed0ca9efe8829b3e1848ca1d7be75b6098e2b7e265643dc28a4338285856040516108659493929190611623565b60405180910390a1505050565b61087a610f32565b610882610ff6565b600160003373ffffffffffffffffffffffffffffffffffffffff1673ffffffffffffffffffffffffffffffffffffffff16815260200190815260200160002060006108cd9190611158565b600260003373ffffffffffffffffffffffffffffffffffffffff1673ffffffffffffffffffffffffffffffffffffffff16815260200190815260200160002060006109189190611158565b565b6060600260003373ffffffffffffffffffffffffffffffffffffffff1673ffffffffffffffffffffffffffffffffffffffff1681526020019081526020016000208054806020026020016040519081016040528092919081815260200182805480156109cb57602002820191906000526020600020906000905b82829054906101000a900460ff1660ff16815260200190600101906020826000010492830192600103820291508084116109945790505b5050505050905090565b606080600060405180608001604052806040518060400160405280600681526020017f537061646573000000000000000000000000000000000000000000000000000081525081526020016040518060400160405280600681526020017f486561727473000000000000000000000000000000000000000000000000000081525081526020016040518060400160405280600881526020017f4469616d6f6e647300000000000000000000000000000000000000000000000081525081526020016040518060400160405280600581526020017f436c75627300000000000000000000000000000000000000000000000000000081525081525090506000604051806101a001604052806040518060400160405280600181526020017f410000000000000000000000000000000000000000000000000000000000000081525081526020016040518060400160405280600181526020017f320000000000000000000000000000000000000000000000000000000000000081525081526020016040518060400160405280600181526020017f330000000000000000000000000000000000000000000000000000000000000081525081526020016040518060400160405280600181526020017f340000000000000000000000000000000000000000000000000000000000000081525081526020016040518060400160405280600181526020017f350000000000000000000000000000000000000000000000000000000000000081525081526020016040518060400160405280600181526020017f360000000000000000000000000000000000000000000000000000000000000081525081526020016040518060400160405280600181526020017f370000000000000000000000000000000000000000000000000000000000000081525081526020016040518060400160405280600181526020017f380000000000000000000000000000000000000000000000000000000000000081525081526020016040518060400160405280600181526020017f390000000000000000000000000000000000000000000000000000000000000081525081526020016040518060400160405280600281526020017f313000000000000000000000000000000000000000000000000000000000000081525081526020016040518060400160405280600181526020017f4a0000000000000000000000000000000000000000000000000000000000000081525081526020016040518060400160405280600181526020017f510000000000000000000000000000000000000000000000000000000000000081525081526020016040518060400160405280600181526020017f4b00000000000000000000000000000000000000000000000000000000000000815250815250905081600d86610dec919061169e565b60ff1660048110610e0057610dff6114a3565b5b602002015181600d87610e1391906116cf565b60ff16600d8110610e2757610e266114a3565b5b6020020151935093505050915091565b600080600090506000805b8451811015610eef576000600d868381518110610e6257610e616114a3565b5b6020026020010151610e7491906116cf565b905060008160ff1603610ea3578280610e8c90611700565b935050600b84610e9c9190611748565b9350610ee1565b60098160ff1610610ec257600a84610ebb9190611748565b9350610ee0565b600181610ecf919061177c565b60ff1684610edd9190611748565b93505b5b508080600101915050610e42565b505b601582118015610f015750600081115b15610f2857600a82610f13919061146f565b91508080610f20906117b1565b915050610ef1565b8192505050919050565b600067ffffffffffffffff811115610f4d57610f4c6117da565b5b604051908082528060200260200182016040528015610f7b5781602001602082028036833780820191505090505b5060009080519060200190610f91929190611180565b5060005b60348160ff161015610ff35760008190806001815401808255809150506001900390600052602060002090602091828204019190069091909190916101000a81548160ff021916908360ff1602179055508080600101915050610f95565b50565b60005b60008054905081101561115557600081600080549050611019919061146f565b42338460405160200161102e93929190611872565b6040516020818303038152906040528051906020012060001c61105191906118af565b8261105c9190611748565b90506000808281548110611073576110726114a3565b5b90600052602060002090602091828204019190069054906101000a900460ff169050600083815481106110a9576110a86114a3565b5b90600052602060002090602091828204019190069054906101000a900460ff16600083815481106110dd576110dc6114a3565b5b90600052602060002090602091828204019190066101000a81548160ff021916908360ff160217905550806000848154811061111c5761111b6114a3565b5b90600052602060002090602091828204019190066101000a81548160ff021916908360ff16021790555050508080600101915050610ff9565b50565b50805460008255601f01602090049060005260206000209081019061117d9190611227565b50565b82805482825590600052602060002090601f016020900481019282156112165791602002820160005b838211156111e757835183826101000a81548160ff021916908360ff16021790555092602001926001016020816000010492830192600103026111a9565b80156112145782816101000a81549060ff02191690556001016020816000010492830192600103026111e7565b505b5090506112239190611227565b5090565b5b80821115611240576000816000905550600101611228565b5090565b600081519050919050565b600082825260208201905092915050565b6000819050602082019050919050565b600060ff82169050919050565b61128681611270565b82525050565b6000611298838361127d565b60208301905092915050565b6000602082019050919050565b60006112bc82611244565b6112c6818561124f565b93506112d183611260565b8060005b838110156113025781516112e9888261128c565b97506112f4836112a4565b9250506001810190506112d5565b5085935050505092915050565b6000602082019050818103600083015261132981846112b1565b905092915050565b600080fd5b6000819050919050565b61134981611336565b811461135457600080fd5b50565b60008135905061136681611340565b92915050565b60006020828403121561138257611381611331565b5b600061139084828501611357565b91505092915050565b6113a281611270565b82525050565b60006020820190506113bd6000830184611399565b92915050565b600082825260208201905092915050565b7f4e6f206361726473206c65667400000000000000000000000000000000000000600082015250565b600061140a600d836113c3565b9150611415826113d4565b602082019050919050565b60006020820190508181036000830152611439816113fd565b9050919050565b7f4e487b7100000000000000000000000000000000000000000000000000000000600052601160045260246000fd5b600061147a82611336565b915061148583611336565b925082820390508181111561149d5761149c611440565b5b92915050565b7f4e487b7100000000000000000000000000000000000000000000000000000000600052603260045260246000fd5b7f4e487b7100000000000000000000000000000000000000000000000000000000600052603160045260246000fd5b600073ffffffffffffffffffffffffffffffffffffffff82169050919050565b600061152c82611501565b9050919050565b61153c81611521565b82525050565b600081519050919050565b60005b8381101561156b578082015181840152602081019050611550565b60008484015250505050565b6000601f19601f8301169050919050565b600061159382611542565b61159d81856113c3565b93506115ad81856020860161154d565b6115b681611577565b840191505092915050565b60006080820190506115d66000830187611533565b6115e36020830186611399565b81810360408301526115f58185611588565b905081810360608301526116098184611588565b905095945050505050565b61161d81611336565b82525050565b60006080820190506116386000830187611533565b818103602083015261164a8186611588565b90506116596040830185611614565b6116666060830184611614565b95945050505050565b7f4e487b7100000000000000000000000000000000000000000000000000000000600052601260045260246000fd5b60006116a982611270565b91506116b483611270565b9250826116c4576116c361166f565b5b828204905092915050565b60006116da82611270565b91506116e583611270565b9250826116f5576116f461166f565b5b828206905092915050565b600061170b82611336565b91507fffffffffffffffffffffffffffffffffffffffffffffffffffffffffffffffff820361173d5761173c611440565b5b600182019050919050565b600061175382611336565b915061175e83611336565b925082820190508082111561177657611775611440565b5b92915050565b600061178782611270565b915061179283611270565b9250828201905060ff8111156117ab576117aa611440565b5b92915050565b60006117bc82611336565b9150600082036117cf576117ce611440565b5b600182039050919050565b7f4e487b7100000000000000000000000000000000000000000000000000000000600052604160045260246000fd5b6000819050919050565b61182461181f82611336565b611809565b82525050565b60008160601b9050919050565b60006118428261182a565b9050919050565b600061185482611837565b9050919050565b61186c61186782611521565b611849565b82525050565b600061187e8286611813565b60208201915061188e828561185b565b60148201915061189e8284611813565b602082019150819050949350505050565b60006118ba82611336565b91506118c583611336565b9250826118d5576118d461166f565b5b82820690509291505056fea2646970667358221220af427fb686bc110f24831fc36dc2b93d35072a20557dd098143a83b4026e8f8d64736f6c634300081c0033",
  "linkReferences": {},
  "deployedLinkReferences": {}
}